{"abi":[{"type":"constructor","inputs":[{"name":"_usdc","type":"address","internalType":"address"}],"stateMutability":"nonpayable"},{"type":"function","name":"DISPUTE_WINDOW","inputs":[],"outputs":[{"name":"","type":"uint256","internalType":"uint256"}],"stateMutability":"view"},{"type":"function","name":"MAX_OTP_ATTEMPTS","inputs":[],"outputs":[{"name":"","type":"uint8","internalType":"uint8"}],"stateMutability":"view"},{"type":"function","name":"REFUND_TIMEOUT","inputs":[],"outputs":[{"name":"","type":"uint256","internalType":"uint256"}],"stateMutability":"view"},{"type":"function","name":"claimRefund","inputs":[{"name":"orderId","type":"uint256","internalType":"uint256"}],"outputs":[],"stateMutability":"nonpayable"},{"type":"function","name":"confirmDelivery","inputs":[{"name":"orderId","type":"uint256","internalType":"uint256"},{"name":"otp","type":"string","internalType":"string"}],"outputs":[],"stateMutability":"nonpayable"},{"type":"function","name":"createOrder","inputs":[{"name":"seller","type":"address","internalType":"address payable"},{"name":"zone","type":"bytes32","internalType":"bytes32"}],"outputs":[{"name":"orderId","type":"uint256","internalType":"uint256"}],"stateMutability":"nonpayable"},{"type":"function","name":"disputeOrder","inputs":[{"name":"orderId","type":"uint256","internalType":"uint256"}],"outputs":[],"stateMutability":"nonpayable"},{"type":"function","name":"disputeTimeLeft","inputs":[{"name":"orderId","type":"uint256","internalType":"uint256"}],"outputs":[{"name":"","type":"uint256","internalType":"uint256"}],"stateMutability":"view"},{"type":"function","name":"getOrder","inputs":[{"name":"orderId","type":"uint256","internalType":"uint256"}],"outputs":[{"name":"","type":"tuple","internalType":"struct EscrowCore.Order","components":[{"name":"buyer","type":"address","internalType":"address payable"},{"name":"seller","type":"address","internalType":"address payable"},{"name":"zone","type":"bytes32","internalType":"bytes32"},{"name":"otpHash","type":"bytes32","internalType":"bytes32"},{"name":"usdcAmount","type":"uint256","internalType":"uint256"},{"name":"createdAt","type":"uint256","internalType":"uint256"},{"name":"deliveredAt","type":"uint256","internalType":"uint256"},{"name":"confirmedAt","type":"uint256","internalType":"uint256"},{"name":"status","type":"uint8","internalType":"enum EscrowCore.Status"}]}],"stateMutability":"view"},{"type":"function","name":"getPrice","inputs":[{"name":"seller","type":"address","internalType":"address"},{"name":"zone","type":"bytes32","internalType":"bytes32"}],"outputs":[{"name":"usdcAmount","type":"uint256","internalType":"uint256"}],"stateMutability":"view"},{"type":"function","name":"getStatus","inputs":[{"name":"orderId","type":"uint256","internalType":"uint256"}],"outputs":[{"name":"","type":"uint8","internalType":"enum EscrowCore.Status"}],"stateMutability":"view"},{"type":"function","name":"isSellerReady","inputs":[{"name":"seller","type":"address","internalType":"address"},{"name":"zone","type":"bytes32","internalType":"bytes32"}],"outputs":[{"name":"","type":"bool","internalType":"bool"}],"stateMutability":"view"},{"type":"function","name":"markDelivered","inputs":[{"name":"orderId","type":"uint256","internalType":"uint256"},{"name":"otpHash","type":"bytes32","internalType":"bytes32"}],"outputs":[],"stateMutability":"nonpayable"},{"type":"function","name":"orderCount","inputs":[],"outputs":[{"name":"","type":"uint256","internalType":"uint256"}],"stateMutability":"view"},{"type":"function","name":"orders","inputs":[{"name":"","type":"uint256","internalType":"uint256"}],"outputs":[{"name":"buyer","type":"address","internalType":"address payable"},{"name":"seller","type":"address","internalType":"address payable"},{"name":"zone","type":"bytes32","internalType":"bytes32"},{"name":"otpHash","type":"bytes32","internalType":"bytes32"},{"name":"usdcAmount","type":"uint256","internalType":"uint256"},{"name":"createdAt","type":"uint256","internalType":"uint256"},{"name":"deliveredAt","type":"uint256","internalType":"uint256"},{"name":"confirmedAt","type":"uint256","internalType":"uint256"},{"name":"status","type":"uint8","internalType":"enum EscrowCore.Status"}],"stateMutability":"view"},{"type":"function","name":"otpAttempts","inputs":[{"name":"","type":"uint256","internalType":"uint256"}],"outputs":[{"name":"","type":"uint8","internalType":"uint8"}],"stateMutability":"view"},{"type":"function","name":"owner","inputs":[],"outputs":[{"name":"","type":"address","internalType":"address"}],"stateMutability":"view"},{"type":"function","name":"releaseFunds","inputs":[{"name":"orderId","type":"uint256","internalType":"uint256"}],"outputs":[],"stateMutability":"nonpayable"},{"type":"function","name":"removePrice","inputs":[{"name":"zone","type":"bytes32","internalType":"bytes32"}],"outputs":[],"stateMutability":"nonpayable"},{"type":"function","name":"renounceOwnership","inputs":[],"outputs":[],"stateMutability":"nonpayable"},{"type":"function","name":"resolveDispute","inputs":[{"name":"orderId","type":"uint256","internalType":"uint256"},{"name":"refundBuyer","type":"bool","internalType":"bool"}],"outputs":[],"stateMutability":"nonpayable"},{"type":"function","name":"sellerAvailable","inputs":[{"name":"","type":"address","internalType":"address"}],"outputs":[{"name":"","type":"bool","internalType":"bool"}],"stateMutability":"view"},{"type":"function","name":"sellerPrices","inputs":[{"name":"","type":"address","internalType":"address"},{"name":"","type":"bytes32","internalType":"bytes32"}],"outputs":[{"name":"","type":"uint256","internalType":"uint256"}],"stateMutability":"view"},{"type":"function","name":"setAvailability","inputs":[{"name":"available","type":"bool","internalType":"bool"}],"outputs":[],"stateMutability":"nonpayable"},{"type":"function","name":"setPrice","inputs":[{"name":"zone","type":"bytes32","internalType":"bytes32"},{"name":"usdcAmount","type":"uint256","internalType":"uint256"}],"outputs":[],"stateMutability":"nonpayable"},{"type":"function","name":"transferOwnership","inputs":[{"name":"newOwner","type":"address","internalType":"address"}],"outputs":[],"stateMutability":"nonpayable"},{"type":"function","name":"usdc","inputs":[],"outputs":[{"name":"","type":"address","internalType":"contract IERC20"}],"stateMutability":"view"},{"type":"event","name":"AvailabilityChanged","inputs":[{"name":"seller","type":"address","indexed":true,"internalType":"address"},{"name":"available","type":"bool","indexed":false,"internalType":"bool"}],"anonymous":false},{"type":"event","name":"DisputeResolved","inputs":[{"name":"orderId","type":"uint256","indexed":true,"internalType":"uint256"},{"name":"recipient","type":"address","indexed":false,"internalType":"address"},{"name":"usdcAmount","type":"uint256","indexed":false,"internalType":"uint256"}],"anonymous":false},{"type":"event","name":"OTPFailed","inputs":[{"name":"orderId","type":"uint256","indexed":true,"internalType":"uint256"},{"name":"attemptNumber","type":"uint8","indexed":false,"internalType":"uint8"},{"name":"attemptsLeft","type":"uint8","indexed":false,"internalType":"uint8"}],"anonymous":false},{"type":"event","name":"OrderCompleted","inputs":[{"name":"orderId","type":"uint256","indexed":true,"internalType":"uint256"},{"name":"confirmedAt","type":"uint256","indexed":false,"internalType":"uint256"}],"anonymous":false},{"type":"event","name":"OrderCreated","inputs":[{"name":"orderId","type":"uint256","indexed":true,"internalType":"uint256"},{"name":"buyer","type":"address","indexed":true,"internalType":"address"},{"name":"seller","type":"address","indexed":true,"internalType":"address"},{"name":"zone","type":"bytes32","indexed":false,"internalType":"bytes32"},{"name":"usdcAmount","type":"uint256","indexed":false,"internalType":"uint256"}],"anonymous":false},{"type":"event","name":"OrderDelivered","inputs":[{"name":"orderId","type":"uint256","indexed":true,"internalType":"uint256"},{"name":"otpHash","type":"bytes32","indexed":false,"internalType":"bytes32"}],"anonymous":false},{"type":"event","name":"OrderDisputed","inputs":[{"name":"orderId","type":"uint256","indexed":true,"internalType":"uint256"}],"anonymous":false},{"type":"event","name":"OrderRefunded","inputs":[{"name":"orderId","type":"uint256","indexed":true,"internalType":"uint256"}],"anonymous":false},{"type":"event","name":"OrderReleased","inputs":[{"name":"orderId","type":"uint256","indexed":true,"internalType":"uint256"},{"name":"usdcAmount","type":"uint256","indexed":false,"internalType":"uint256"}],"anonymous":false},{"type":"event","name":"OwnershipTransferred","inputs":[{"name":"previousOwner","type":"address","indexed":true,"internalType":"address"},{"name":"newOwner","type":"address","indexed":true,"internalType":"address"}],"anonymous":false},{"type":"event","name":"PriceRemoved","inputs":[{"name":"seller","type":"address","indexed":true,"internalType":"address"},{"name":"zone","type":"bytes32","indexed":false,"internalType":"bytes32"}],"anonymous":false},{"type":"event","name":"PriceSet","inputs":[{"name":"seller","type":"address","indexed":true,"internalType":"address"},{"name":"zone","type":"bytes32","indexed":false,"internalType":"bytes32"},{"name":"usdcAmount","type":"uint256","indexed":false,"internalType":"uint256"}],"anonymous":false},{"type":"error","name":"EscrowCore__DisputeWindowClosed","inputs":[]},{"type":"error","name":"EscrowCore__DisputeWindowOpen","inputs":[]},{"type":"error","name":"EscrowCore__InvalidOTP","inputs":[]},{"type":"error","name":"EscrowCore__InvalidOTPHash","inputs":[]},{"type":"error","name":"EscrowCore__InvalidZone","inputs":[]},{"type":"error","name":"EscrowCore__MaxAttemptsReached","inputs":[]},{"type":"error","name":"EscrowCore__NotBuyer","inputs":[]},{"type":"error","name":"EscrowCore__NotSeller","inputs":[]},{"type":"error","name":"EscrowCore__SelfTrade","inputs":[]},{"type":"error","name":"EscrowCore__SellerUnavailable","inputs":[]},{"type":"error","name":"EscrowCore__TimeoutNotReached","inputs":[]},{"type":"error","name":"EscrowCore__TransferFailed","inputs":[]},{"type":"error","name":"EscrowCore__WrongStatus","inputs":[{"name":"expected","type":"uint8","internalType":"enum EscrowCore.Status"},{"name":"actual","type":"uint8","internalType":"enum EscrowCore.Status"}]},{"type":"error","name":"EscrowCore__ZeroAddress","inputs":[]},{"type":"error","name":"EscrowCore__ZeroPayment","inputs":[]},{"type":"error","name":"EscrowCore__ZeroPrice","inputs":[]},{"type":"error","name":"EscrowCore__ZoneNotFound","inputs":[]},{"type":"error","name":"OwnableInvalidOwner","inputs":[{"name":"owner","type":"address","internalType":"address"}]},{"type":"error","name":"OwnableUnauthorizedAccount","inputs":[{"name":"account","type":"address","internalType":"address"}]},{"type":"error","name":"ReentrancyGuardReentrantCall","inputs":[]},{"type":"error","name":"SafeERC20FailedOperation","inputs":[{"name":"token","type":"address","internalType":"address"}]}],"bytecode":{"object":"0x60a03461011f57601f6114d138819003918201601f19168301916001600160401b038311848410176101235780849260209460405283398101031261011f57516001600160a01b0381169081900361011f57331561010c575f8054336001600160a01b0319821681178355604051939290916001600160a01b0316907f8be0079c531659141344cd1fd0a4f28419497f9722a3daafe3b4186f6b6457e09080a360017f9b779b17422d0df92223018b32b4d1fa46e071723d6817e2486d003becc55f005580156100fd576080526113999081610138823960805181818161091101528181610a7101528181610c1501528181610d4b0152610e660152f35b630344830f60e51b5f5260045ffd5b631e4fbdf760e01b5f525f60045260245ffd5b5f80fd5b634e487b7160e01b5f52604160045260245ffdfe6080806040526004361015610012575f80fd5b5f3560e01c90816310d8d74d14610fc5575080632453ffa814610fa85780632672bea114610f4157806326a1837514610edc57806334b25ee214610da05780633b6cd91614610d7a5780633e413bee14610d365780634d471e8514610abe5780634d68282f146109b85780635b22e3551461097b5780635b7baf64146108665780635c622a0e1461083157806370f0fff114610748578063715018a6146106f15780637d57900a146106d45780637f2d6475146106655780638da5cb5b1461063e5780639eb4dcf314610623578063a09970b21461053a578063a1aaf6c714610373578063a85c38ef1461049f578063b2118388146103b7578063cd3b495714610373578063d09ef24114610217578063f2fde38b14610192578063f585dc57146101765763fdbb9b1114610145575f80fd5b34610172576020366003190112610172576004355f526005602052602060ff60405f205416604051908152f35b5f80fd5b34610172575f366003190112610172576020604051611c208152f35b34610172576020366003190112610172576101ab61103e565b6101b361129c565b6001600160a01b03168015610204575f80546001600160a01b03198116831782556001600160a01b0316907f8be0079c531659141344cd1fd0a4f28419497f9722a3daafe3b4186f6b6457e09080a3005b631e4fbdf760e01b5f525f60045260245ffd5b34610172576020366003190112610172575f610100604051610238816110df565b8281528260208201528260408201528260608201528260808201528260a08201528260c08201528260e082015201526004355f52600260205260405f20604051610281816110df565b60018060a01b03825416815260018060a01b03600183015416916020820192835260028101546040830190815260038201549160608401928352600481015460808501908152600582015460a0860190815260068301549160c0870192835260ff600860078601549560e08a0196875201541695610100880195600688101561035f576101209961035d9888526040519960018060a01b039051168a5260018060a01b0390511660208a01525160408901525160608801525160808701525160a08601525160c08501525160e084015251610100830190611062565bf35b634e487b7160e01b5f52602160045260245ffd5b34610172576040366003190112610172576001600160a01b0361039461103e565b165f52600360205260405f206024355f52602052602060405f2054604051908152f35b346101725760403660031901126101725760243560043567ffffffffffffffff821161017257366023830112156101725781600401359067ffffffffffffffff821161017257366024838501011161017257610411611264565b5f818152600260205260409020546001600160a01b0316330361049057805f52600260205260ff600860405f20015416600681101561035f576001810361047357506024610460930190611110565b60015f5160206113445f395f51905f5255005b6313b7415960e31b5f52600160045261048b90611054565b60445ffd5b6337fe465960e11b5f5260045ffd5b34610172576020366003190112610172576004355f52600260205261012060405f2061035d60018060a01b038254169160018060a01b036001820154169060028101546003820154600483015460058401549160068501549360ff600860078801549701541696604051998a5260208a015260408901526060880152608087015260a086015260c085015260e0840152610100830190611062565b34610172576020366003190112610172576004355f818152600260205260409020546001600160a01b0316330361049057805f52600260205260ff600860405f20015416600681101561035f576002810361060b5750805f52600260205260405f206007810154611c2081018091116105f7574210156105e857600801805460ff191660051790557fcc71d13ec179647ba6991025098e2d3f0dc223962c4052028bfb067e394e22b05f80a2005b630274334360e21b5f5260045ffd5b634e487b7160e01b5f52601160045260245ffd5b6313b7415960e31b5f52600260045261048b90611054565b34610172575f36600319011261017257602060405160048152f35b34610172575f366003190112610172575f546040516001600160a01b039091168152602090f35b346101725760203660031901126101725760043580156106c557335f52600360205260405f20815f526020525f60408120556040519081527fc6de8249ca252df4b71cc03faf067e867f25de0244ae49bc641097cabd9cdc8e60203392a2005b633c8b36e360e11b5f5260045ffd5b34610172575f36600319011261017257602060405162093a808152f35b34610172575f3660031901126101725761070961129c565b5f80546001600160a01b0319811682556001600160a01b03167f8be0079c531659141344cd1fd0a4f28419497f9722a3daafe3b4186f6b6457e08280a3005b34610172576040366003190112610172576004355f81815260026020526040902060010154602435906001600160a01b0316330361082257815f52600260205260ff600860405f20015416600681101561035f578061080a575080156107fb5760207fbbd51761021d0f19f00343ed888f1fea9d7a567a3506b3b20526a49d06fe27e491835f526002825260405f2081600382015560088101600160ff19825416179055600642910155604051908152a2005b63170011e960e21b5f5260045ffd5b6313b7415960e31b5f90815260045261048b90611054565b630372a24360e31b5f5260045ffd5b34610172576020366003190112610172576004355f526002602052602060ff600860405f2001541661035d6040518092611062565b3461017257602036600319011261017257600435610882611264565b5f818152600260205260409020546001600160a01b0316330361049057805f52600260205260ff600860405f20015416600681101561035f578061080a5750805f52600260205260405f20600581015462093a8081018091116105f757421061096c5760088101805460ff19166004908117909155810180545f909155905461093591906001600160a01b03167f00000000000000000000000000000000000000000000000000000000000000006112c2565b7f303a31648d19f17852cf82657162c4bdd4a06ab3f36f1e7ae1118f4ca6473e115f80a260015f5160206113445f395f51905f5255005b63e27c23d760e01b5f5260045ffd5b34610172576020366003190112610172576001600160a01b0361099c61103e565b165f526004602052602060ff60405f2054166040519015158152f35b34610172576020366003190112610172576004356109d4611264565b805f52600260205260ff600860405f20015416600681101561035f576002810361060b5750805f52600260205260405f206007810154611c2081018091116105f7574210610aaf5760088101805460ff191660031790556004810180545f9091556001909101547faf19a54192726ad3309ad6dcd248c3d939577fd6c77f6fa23bbfdb579fa74fae91602091610a959082906001600160a01b03167f00000000000000000000000000000000000000000000000000000000000000006112c2565b604051908152a260015f5160206113445f395f51905f5255005b63058c9f1f60e21b5f5260045ffd5b34610172576040366003190112610172576004356001600160a01b0381169081900361017257602435610aef611264565b8115610d2757338214610d185780156106c557815f52600460205260ff60405f20541615610d0957815f52600360205260405f20815f5260205260405f2054918215610cfa576001545f1981146105f7576001019182600155604051610b54816110df565b338152602080820184815260408084018581525f60608601818152608087018b81524260a0890190815260c0890184815260e08a018581526101008b018681528e875260029a8b90529790952099518a546001600160a01b03199081166001600160a01b03928316178c55985160018c018054909a1691161790975593519688019690965551600387015593516004860155516005850155905160068085019190915591516007840155519081101561035f576008610c13920161106f565b7f000000000000000000000000000000000000000000000000000000000000000093604051916323b872dd60e01b5f5233600452306024528160445260205f606481808a5af160015f5114811615610cdb575b836040525f60605215610cbd5760209550825284820152827f7a27e3767cb867414acf86dbc06c8f85e23f4951c2034594b1e91ca1b7d774f360403393a460015f5160206113445f395f51905f5255604051908152f35b635274afe760e01b5f9081526001600160a01b038716600452602490fd5b6001811516610cf157863b15153d151616610c66565b833d5f823e3d90fd5b631e4f9b5f60e11b5f5260045ffd5b633107d82d60e21b5f5260045ffd5b635a43785360e01b5f5260045ffd5b630344830f60e51b5f5260045ffd5b34610172575f366003190112610172576040517f00000000000000000000000000000000000000000000000000000000000000006001600160a01b03168152602090f35b34610172576020366003190112610172576020610d98600435611087565b604051908152f35b3461017257604036600319011261017257600435602435801515810361017257610dc8611264565b610dd061129c565b815f52600260205260ff600860405f20015416600681101561035f5760058103610ec4575060407fdf0baf5489595ea17a097d16827d60793e2f57f3b85a982e5d7e02838b841ee691835f526002602052815f20815f14610eba57610e3a60045b6008830161106f565b60048101915f835493555f14610ea857546001600160a01b03165b6001600160a01b031690610e8a81837f00000000000000000000000000000000000000000000000000000000000000006112c2565b82519182526020820152a260015f5160206113445f395f51905f5255005b600101546001600160a01b0316610e55565b610e3a6003610e31565b6313b7415960e31b5f52600560045261048b90611054565b346101725760203660031901126101725760043580151580910361017257335f52600460205260405f2060ff1981541660ff83161790556040519081527f562959e54bc5720974a51bcecdf4febbbc2b5a263655bed9db94b39ed95d8e9160203392a2005b34610172576040366003190112610172576001600160a01b03610f6261103e565b16805f52600460205260ff60405f20541680610f86575b6020906040519015158152f35b505f52600360205260405f206024355f52602052602060405f20541515610f79565b34610172575f366003190112610172576020600154604051908152f35b346101725760403660031901126101725760243560043580156106c557811561102f57335f52600360205260405f20815f526020528160405f2055825260208201527f96b6fa4a747eac5c56c4e21b8b48beafa4e1d36787a5750caa5a5c095bf3eed660403392a2005b630333591f60e51b5f5260045ffd5b600435906001600160a01b038216820361017257565b600681101561035f57602452565b90600682101561035f5752565b90600681101561035f5760ff80198354169116179055565b5f52600260205260405f2060ff600882015416600681101561035f576002036110da5760070154611c208101908181116105f757814210156110d457429003611c20019081116105f75790565b50505f90565b505f90565b610120810190811067ffffffffffffffff8211176110fc57604052565b634e487b7160e01b5f52604160045260245ffd5b9190825f52600260205260405f2091835f52600560205260405f20805460ff811660ff81146105f757600160ff9101169060ff1916179055602060405182819383830195863781015f838201520301601f1981018252601f8019910116810181811067ffffffffffffffff8211176110fc576040525190206003820154036111d35760088101600260ff198254161790556007429101557f8018cc3f9db78a02ed6d3210f982aa968ce2a26acb738b0917febbcdd47b350c6020604051428152a2565b815f52600560205260ff60405f205416806004039060ff82116105f757837f7924fe6b4543dc14dbef31d130c488b77e8a45f9831232b2971bbf3c1cd34dbd604060049460ff825191868352166020820152a21015611230575050565b600801805460ff191660051790557fcc71d13ec179647ba6991025098e2d3f0dc223962c4052028bfb067e394e22b05f80a2565b60025f5160206113445f395f51905f52541461128d5760025f5160206113445f395f51905f5255565b633ee5aeb560e01b5f5260045ffd5b5f546001600160a01b031633036112af57565b63118cdaa760e01b5f523360045260245ffd5b916040519163a9059cbb60e01b5f5260018060a01b031660045260245260205f60448180865af19060015f5114821615611322575b604052156113025750565b635274afe760e01b5f9081526001600160a01b0391909116600452602490fd5b90600181151661133a57823b15153d151616906112f7565b503d5f823e3d90fdfe9b779b17422d0df92223018b32b4d1fa46e071723d6817e2486d003becc55f00a26469706673582212209a5c08777c793c052bd6f53cf69fe57a4d9e804a8c74a7015c8b645944c8f14364736f6c634300081e0033","linkReferences":{}},"methodIdentifiers":{"DISPUTE_WINDOW()":"f585dc57","MAX_OTP_ATTEMPTS()":"9eb4dcf3","REFUND_TIMEOUT()":"7d57900a","claimRefund(uint256)":"5b7baf64","confirmDelivery(uint256,string)":"b2118388","createOrder(address,bytes32)":"4d471e85","disputeOrder(uint256)":"a09970b2","disputeTimeLeft(uint256)":"3b6cd916","getOrder(uint256)":"d09ef241","getPrice(address,bytes32)":"a1aaf6c7","getStatus(uint256)":"5c622a0e","isSellerReady(address,bytes32)":"2672bea1","markDelivered(uint256,bytes32)":"70f0fff1","orderCount()":"2453ffa8","orders(uint256)":"a85c38ef","otpAttempts(uint256)":"fdbb9b11","owner()":"8da5cb5b","releaseFunds(uint256)":"4d68282f","removePrice(bytes32)":"7f2d6475","renounceOwnership()":"715018a6","resolveDispute(uint256,bool)":"34b25ee2","sellerAvailable(address)":"5b22e355","sellerPrices(address,bytes32)":"cd3b4957","setAvailability(bool)":"26a18375","setPrice(bytes32,uint256)":"10d8d74d","transferOwnership(address)":"f2fde38b","usdc()":"3e413bee"},"id":34}