{"abi":[{"type":"constructor","inputs":[],"stateMutability":"nonpayable"},{"type":"function","name":"MAX_SUPPLY","inputs":[],"outputs":[{"name":"","type":"uint256","internalType":"uint256"}],"stateMutability":"view"},{"type":"function","name":"approve","inputs":[{"name":"to","type":"address","internalType":"address"},{"name":"tokenId","type":"uint256","internalType":"uint256"}],"outputs":[],"stateMutability":"nonpayable"},{"type":"function","name":"balanceOf","inputs":[{"name":"owner","type":"address","internalType":"address"}],"outputs":[{"name":"","type":"uint256","internalType":"uint256"}],"stateMutability":"view"},{"type":"function","name":"batchMinter","inputs":[],"outputs":[{"name":"","type":"address","internalType":"address"}],"stateMutability":"view"},{"type":"function","name":"getApproved","inputs":[{"name":"tokenId","type":"uint256","internalType":"uint256"}],"outputs":[{"name":"","type":"address","internalType":"address"}],"stateMutability":"view"},{"type":"function","name":"isApprovedForAll","inputs":[{"name":"owner","type":"address","internalType":"address"},{"name":"operator","type":"address","internalType":"address"}],"outputs":[{"name":"","type":"bool","internalType":"bool"}],"stateMutability":"view"},{"type":"function","name":"mint","inputs":[{"name":"to","type":"address","internalType":"address"},{"name":"tokenId","type":"uint256","internalType":"uint256"}],"outputs":[],"stateMutability":"nonpayable"},{"type":"function","name":"name","inputs":[],"outputs":[{"name":"","type":"string","internalType":"string"}],"stateMutability":"view"},{"type":"function","name":"owner","inputs":[],"outputs":[{"name":"","type":"address","internalType":"address"}],"stateMutability":"view"},{"type":"function","name":"ownerOf","inputs":[{"name":"tokenId","type":"uint256","internalType":"uint256"}],"outputs":[{"name":"","type":"address","internalType":"address"}],"stateMutability":"view"},{"type":"function","name":"renounceOwnership","inputs":[],"outputs":[],"stateMutability":"nonpayable"},{"type":"function","name":"safeTransferFrom","inputs":[{"name":"from","type":"address","internalType":"address"},{"name":"to","type":"address","internalType":"address"},{"name":"tokenId","type":"uint256","internalType":"uint256"}],"outputs":[],"stateMutability":"nonpayable"},{"type":"function","name":"safeTransferFrom","inputs":[{"name":"from","type":"address","internalType":"address"},{"name":"to","type":"address","internalType":"address"},{"name":"tokenId","type":"uint256","internalType":"uint256"},{"name":"data","type":"bytes","internalType":"bytes"}],"outputs":[],"stateMutability":"nonpayable"},{"type":"function","name":"setApprovalForAll","inputs":[{"name":"operator","type":"address","internalType":"address"},{"name":"approved","type":"bool","internalType":"bool"}],"outputs":[],"stateMutability":"nonpayable"},{"type":"function","name":"setBatchMinter","inputs":[{"name":"_batchMinter","type":"address","internalType":"address"}],"outputs":[],"stateMutability":"nonpayable"},{"type":"function","name":"supportsInterface","inputs":[{"name":"interfaceId","type":"bytes4","internalType":"bytes4"}],"outputs":[{"name":"","type":"bool","internalType":"bool"}],"stateMutability":"view"},{"type":"function","name":"symbol","inputs":[],"outputs":[{"name":"","type":"string","internalType":"string"}],"stateMutability":"view"},{"type":"function","name":"tokenURI","inputs":[{"name":"tokenId","type":"uint256","internalType":"uint256"}],"outputs":[{"name":"","type":"string","internalType":"string"}],"stateMutability":"view"},{"type":"function","name":"totalSupply","inputs":[],"outputs":[{"name":"","type":"uint256","internalType":"uint256"}],"stateMutability":"view"},{"type":"function","name":"transferFrom","inputs":[{"name":"from","type":"address","internalType":"address"},{"name":"to","type":"address","internalType":"address"},{"name":"tokenId","type":"uint256","internalType":"uint256"}],"outputs":[],"stateMutability":"nonpayable"},{"type":"function","name":"transferOwnership","inputs":[{"name":"newOwner","type":"address","internalType":"address"}],"outputs":[],"stateMutability":"nonpayable"},{"type":"event","name":"Approval","inputs":[{"name":"owner","type":"address","indexed":true,"internalType":"address"},{"name":"approved","type":"address","indexed":true,"internalType":"address"},{"name":"tokenId","type":"uint256","indexed":true,"internalType":"uint256"}],"anonymous":false},{"type":"event","name":"ApprovalForAll","inputs":[{"name":"owner","type":"address","indexed":true,"internalType":"address"},{"name":"operator","type":"address","indexed":true,"internalType":"address"},{"name":"approved","type":"bool","indexed":false,"internalType":"bool"}],"anonymous":false},{"type":"event","name":"OwnershipTransferred","inputs":[{"name":"previousOwner","type":"address","indexed":true,"internalType":"address"},{"name":"newOwner","type":"address","indexed":true,"internalType":"address"}],"anonymous":false},{"type":"event","name":"Transfer","inputs":[{"name":"from","type":"address","indexed":true,"internalType":"address"},{"name":"to","type":"address","indexed":true,"internalType":"address"},{"name":"tokenId","type":"uint256","indexed":true,"internalType":"uint256"}],"anonymous":false},{"type":"error","name":"ERC721IncorrectOwner","inputs":[{"name":"sender","type":"address","internalType":"address"},{"name":"tokenId","type":"uint256","internalType":"uint256"},{"name":"owner","type":"address","internalType":"address"}]},{"type":"error","name":"ERC721InsufficientApproval","inputs":[{"name":"operator","type":"address","internalType":"address"},{"name":"tokenId","type":"uint256","internalType":"uint256"}]},{"type":"error","name":"ERC721InvalidApprover","inputs":[{"name":"approver","type":"address","internalType":"address"}]},{"type":"error","name":"ERC721InvalidOperator","inputs":[{"name":"operator","type":"address","internalType":"address"}]},{"type":"error","name":"ERC721InvalidOwner","inputs":[{"name":"owner","type":"address","internalType":"address"}]},{"type":"error","name":"ERC721InvalidReceiver","inputs":[{"name":"receiver","type":"address","internalType":"address"}]},{"type":"error","name":"ERC721InvalidSender","inputs":[{"name":"sender","type":"address","internalType":"address"}]},{"type":"error","name":"ERC721NonexistentToken","inputs":[{"name":"tokenId","type":"uint256","internalType":"uint256"}]},{"type":"error","name":"MonadNFT__MaxSupplyReached","inputs":[]},{"type":"error","name":"MonadNFT__NotBatchMinter","inputs":[]},{"type":"error","name":"OwnableInvalidOwner","inputs":[{"name":"owner","type":"address","internalType":"address"}]},{"type":"error","name":"OwnableUnauthorizedAccount","inputs":[{"name":"account","type":"address","internalType":"address"}]}],"bytecode":{"object":"0x60806040523461052757610013604061052b565b600a81526926b7b730b2213634ba3d60b11b6020820152610034604061052b565b600681526526a12624aa2d60d11b602082015281516001600160401b0381116103a6576100615f54610550565b601f81116104da575b50602092601f821160011461047b5761009b929382915f926102f7575b50508160011b915f199060031b1c19161790565b5f555b80516001600160401b0381116103a6576100b9600154610550565b601f811161042d575b50602091601f82116001146103cd576100f0925f91836102f75750508160011b915f199060031b1c19161790565b6001555b33156103ba5760068054336001600160a01b0319821681179092556001600160a01b03167f8be0079c531659141344cd1fd0a4f28419497f9722a3daafe3b4186f6b6457e05f80a360405161010081016001600160401b038111828210176103a657604052610163604061052b565b60078152662338333645463960c81b60208201528152610183604061052b565b600781526611991818181a9960c91b602082015260208201526101a6604061052b565b60078152662341304646423560c81b602082015260408201526101c9604061052b565b600781526611a3231b211b2160c91b602082015260608201526101ec604061052b565b600781526608d191910e4cd160ca1b6020820152608082015261020f604061052b565b600781526608cd1150d110cd60ca1b602082015260a0820152610232604061052b565b60078152660234646384330360cc1b602082015260c0820152610255604061052b565b60078152661198182123232360c91b602082015260e08201526009905f905b6008821061028b576040516119b3908161059f8239f35b80518051906001600160401b0382116103a6576102a88554610550565b601f811161036b575b50602090601f831160011461030257926102e8836001959460209487965f926102f75750508160011b915f199060031b1c19161790565b86555b01930191019091610274565b015190505f80610087565b90601f19831691865f52815f20925f5b818110610353575093602093600196938796938388951061033b575b505050811b0186556102eb565b01515f1960f88460031b161c191690555f808061032e565b82840151855560019094019360209384019301610312565b61039690865f5260205f20601f850160051c8101916020861061039c575b601f0160051c0190610588565b5f6102b1565b9091508190610389565b634e487b7160e01b5f52604160045260245ffd5b631e4fbdf760e01b5f525f60045260245ffd5b601f1982169260015f52805f20915f5b858110610415575083600195106103fd575b505050811b016001556100f4565b01515f1960f88460031b161c191690555f80806103ef565b919260206001819286850151815501940192016103dd565b60015f52610475907fb10e2d527612073b26eecdfd717e6a320cf44b4afac2b0732d9fcbe2b7fa0cf6601f840160051c8101916020851061039c57601f0160051c0190610588565b5f6100c2565b601f198216935f8052805f20915f5b8681106104c257508360019596106104aa575b505050811b015f5561009e565b01515f1960f88460031b161c191690555f808061049d565b9192602060018192868501518155019401920161048a565b5f8052610521907f290decd9548b62a8d60345a988386fc84ba6bc95484008f6362f93160ef3e563601f840160051c8101916020851061039c57601f0160051c0190610588565b5f61006a565b5f80fd5b6040519190601f01601f191682016001600160401b038111838210176103a657604052565b90600182811c9216801561057e575b602083101461056a57565b634e487b7160e01b5f52602260045260245ffd5b91607f169161055f565b818110610593575050565b5f815560010161058856fe6080806040526004361015610012575f80fd5b5f3560e01c90816301ffc9a7146111d05750806306fdde0314611118578063081812fc146110dc578063095ea7b314610ff257806318160ddd14610fd557806323b872dd14610fbe57806332cb6b0c14610fa257806340c10f1914610d2f57806342842e0e14610d005780636352211e14610cd057806370a0823114610c7f578063715018a614610c245780638da5cb5b14610bfc57806395d89b4114610af4578063a22cb46514610a40578063b1db9044146109fd578063b88d4fde14610967578063c87b56dd1461020c578063d0d164bd146101e4578063e985e9c51461018d5763f2fde38b14610103575f80fd5b346101895760203660031901126101895761011c61125f565b610124611590565b6001600160a01b0316801561017657600680546001600160a01b0319811683179091556001600160a01b03167f8be0079c531659141344cd1fd0a4f28419497f9722a3daafe3b4186f6b6457e05f80a3005b631e4fbdf760e01b5f525f60045260245ffd5b5f80fd5b34610189576040366003190112610189576101a661125f565b6101ae611275565b9060018060a01b03165f52600560205260405f209060018060a01b03165f52602052602060ff60405f2054166040519015158152f35b34610189575f366003190112610189576008546040516001600160a01b039091168152602090f35b346101895760203660031901126101895760043560075481116109315760078116600881101561091d5761024290600901611317565b9060038101811161090957600860038208600881101561091d5761026890600901611317565b9160058201821161090957600860058308600881101561091d5761028e90600901611317565b9260078301831161090957600860078408600881101561091d576102b490600901611317565b60328406601e019182601e11610909576028850660140195866014116109095760648606605001918260501161090957605087069788605001988960501161090957609601938460961161090957603c890660960190816096116109095761031b906116db565b99610325906116db565b9661032f906116db565b94610339906116db565b90610343906116db565b9061034d836116db565b92610357906116db565b936103656101688c066116db565b9661036f8c6116db565b996040519d8e809d602082017f3c73766720786d6c6e733d22687474703a2f2f7777772e77332e6f72672f32309052604082017f30302f737667222076696577426f783d223020302033303020333030223e00009052605e82017f3c726563742077696474683d2233303022206865696768743d2233303022206690526434b6361e9160d91b607e8301528051916020839201906083015e6211179f60e91b6083918f01918201526b1e31b4b931b6329031bc1e9160a11b60868201528151918290602001609283015e0160830165111031bc9e9160d11b600f82015281516020819301601583015e01600f01641110391e9160d91b600682015281516020819301600b83015e016006016711103334b6361e9160c11b600582015281516020819301600d83015e0160050171111037b830b1b4ba3c9e9118171c1a91179f60711b6008820152681e3932b1ba103c1e9160b91b601a82015281516020819301602383015e016008016411103c9e9160d91b601b82015281516020819301602083015e01601b016811103bb4b23a341e9160b91b600582015281516020819301600e83015e016005016911103432b4b3b43a1e9160b11b600982015281516020819301601383015e016009016711103334b6361e9160c11b600a82015281516020819301601283015e01600a01600881017f22206f7061636974793d22302e373522207472616e73666f726d3d22726f7461905260288101620e8ca560eb1b905281516020819301602b83015e016008016b10189a9810189a981491179f60a11b6023820152602f81017f3c636972636c652063783d22313530222063793d223135302220723d22313522905266103334b6361e9160c91b604f82015281516020819301605683015e70111037b830b1b4ba3c9e9118171c91179f60791b605692909101918201527f3c7465787420783d223135302220793d223238352220746578742d616e63686f60678201527f723d226d6964646c65222066696c6c3d2277686974652220000000000000000060878201527f666f6e742d73697a653d2231322220666f6e742d66616d696c793d226d6f6e6f609f8201527439b830b1b2911037b830b1b4ba3c9e9118171c911f60591b60bf820152664d4f4e4144202360c81b60d4820152815191602382019183916020019060db015e0160330160858101661e17ba32bc3a1f60c91b9052608c8101651e17b9bb339f60d11b90520360850160121981018352600d0161070690836112c5565b61070f816116db565b90610719906116db565b9161072390611848565b604051928392757b226e616d65223a20224d6f6e6164426c69747a202360501b602085015280516020819201603686015e61088b60f21b6036918501918201527f226465736372697074696f6e223a20223130303020756e69717565206f6e2d6360388201527f6861696e204e465473206d696e74656420696e206f6e65207472616e7361637460588201526e1a5bdb881bdb88135bdb98590b888b608a1b60788201527f2261747472696275746573223a205b7b2274726169745f74797065223a20225460878201527337b5b2b71024a2111610113b30b63ab2911d101160611b60a7820152815191829060200160bb83015e0160360163089f574b60e21b6085820152608981017f22696d616765223a2022646174613a696d6167652f7376672b786d6c3b626173905260a9810163194d8d0b60e21b90528151602081930160ad83015e0160850161227d60f01b602882015203602801601d198101825260020161089090826112c5565b61089990611848565b6040518091602082017f646174613a6170706c69636174696f6e2f6a736f6e3b6261736536342c000000905280516020819201603d84015e8101603d81015f905203603d01601f19810182526108ef90826112c5565b604051809160208252602082016109059161123b565b0390f35b634e487b7160e01b5f52601160045260245ffd5b634e487b7160e01b5f52603260045260245ffd5b60405162461bcd60e51b815260206004820152600e60248201526d111bd95cc81b9bdd08195e1a5cdd60921b6044820152606490fd5b346101895760803660031901126101895761098061125f565b610988611275565b906044356064359267ffffffffffffffff84116101895736602385011215610189578360040135926109b9846112fb565b936109c760405195866112c5565b8085523660248288010111610189576020815f9260246109fb990183890137860101526109f58383836113cf565b336115b7565b005b3461018957602036600319011261018957610a1661125f565b610a1e611590565b600880546001600160a01b0319166001600160a01b0392909216919091179055005b3461018957604036600319011261018957610a5961125f565b60243590811515809203610189573315610ae1576001600160a01b0316908115610ace57335f52600560205260405f20825f5260205260405f2060ff1981541660ff83161790556040519081527f17307eab39ab6107e8899845ad3d59bd9653f200f220920489ca2b5937696c3160203392a3005b50630b61174360e31b5f5260045260245ffd5b63a9fbf51f60e01b5f525f60045260245ffd5b34610189575f366003190112610189576040515f6001548060011c90600181168015610bf2575b602083108114610bde57828552908115610bba5750600114610b5c575b61090583610b48818503826112c5565b60405191829160208352602083019061123b565b60015f9081527fb10e2d527612073b26eecdfd717e6a320cf44b4afac2b0732d9fcbe2b7fa0cf6939250905b808210610ba057509091508101602001610b48610b38565b919260018160209254838588010152019101909291610b88565b60ff191660208086019190915291151560051b84019091019150610b489050610b38565b634e487b7160e01b5f52602260045260245ffd5b91607f1691610b1b565b34610189575f366003190112610189576006546040516001600160a01b039091168152602090f35b34610189575f36600319011261018957610c3c611590565b600680546001600160a01b031981169091555f906001600160a01b03167f8be0079c531659141344cd1fd0a4f28419497f9722a3daafe3b4186f6b6457e08280a3005b34610189576020366003190112610189576001600160a01b03610ca061125f565b168015610cbd575f526003602052602060405f2054604051908152f35b6322718ad960e21b5f525f60045260245ffd5b34610189576020366003190112610189576020610cee60043561155c565b6040516001600160a01b039091168152f35b34610189576109fb610d113661128b565b9060405192610d216020856112c5565b5f84526109f58383836113cf565b3461018957604036600319011261018957610d4861125f565b600854602435906001600160a01b03163303610f93576007546107d0811015610f84575f19811461090957600101600755604051602091610d8983836112c5565b5f82526001600160a01b038416938415610f71575f8281526002855260409020546001600160a01b03168015159081610f40575b865f526003865260405f2060018154019055835f526002865260405f20876bffffffffffffffffffffffff60a01b8254161790558387827fddf252ad1be2c89b69c2b068fc378daa952ba7f163c4a11628f55a4df523b3ef5f80a450610f2d573b610e2457005b610e5e9183916040519384928392630a85bd0160e11b84523360048501525f6024850152604484015260806064840152608483019061123b565b03815f875af15f9181610eed575b50610ec057503d15610eb8573d90610e83826112fb565b91610e9160405193846112c5565b82523d5f8284013e5b81519182610eb55783633250574960e11b5f5260045260245ffd5b01fd5b606090610e9a565b6001600160e01b03191663757a42ff60e11b019050610edb57005b633250574960e11b5f5260045260245ffd5b9091508281813d8311610f26575b610f0581836112c5565b8101031261018957516001600160e01b031981168103610189579084610e6c565b503d610efb565b6339e3563760e11b5f525f60045260245ffd5b5f8481526004602052604080822080546001600160a01b031916905582825260038852902080545f19019055610dbd565b633250574960e11b5f525f60045260245ffd5b6325fc884b60e21b5f5260045ffd5b63fe38240360e01b5f5260045ffd5b34610189575f3660031901126101895760206040516107d08152f35b34610189576109fb610fcf3661128b565b916113cf565b34610189575f366003190112610189576020600754604051908152f35b346101895760403660031901126101895761100b61125f565b6024356110178161155c565b331515806110c9575b8061109c575b6110895781906001600160a01b0384811691167f8c5be1e5ebec7d5bd14f71427d1e84f3dd0314c0f7b2291e5b200ac8c7c3b9255f80a45f90815260046020526040902080546001600160a01b0319166001600160a01b03909216919091179055005b63a9fbf51f60e01b5f523360045260245ffd5b506001600160a01b0381165f90815260056020908152604080832033845290915290205460ff1615611026565b506001600160a01b038116331415611020565b34610189576020366003190112610189576004356110f98161155c565b505f526004602052602060018060a01b0360405f205416604051908152f35b34610189575f366003190112610189576040515f5f548060011c906001811680156111c6575b602083108114610bde57828552908115610bba575060011461116a5761090583610b48818503826112c5565b5f8080527f290decd9548b62a8d60345a988386fc84ba6bc95484008f6362f93160ef3e563939250905b8082106111ac57509091508101602001610b48610b38565b919260018160209254838588010152019101909291611194565b91607f169161113e565b34610189576020366003190112610189576004359063ffffffff60e01b8216809203610189576020916380ac58cd60e01b811490811561122a575b8115611219575b5015158152f35b6301ffc9a760e01b14905083611212565b635b5e139f60e01b8114915061120b565b805180835260209291819084018484015e5f828201840152601f01601f1916010190565b600435906001600160a01b038216820361018957565b602435906001600160a01b038216820361018957565b6060906003190112610189576004356001600160a01b038116810361018957906024356001600160a01b0381168103610189579060443590565b90601f8019910116810190811067ffffffffffffffff8211176112e757604052565b634e487b7160e01b5f52604160045260245ffd5b67ffffffffffffffff81116112e757601f01601f191660200190565b90604051915f8154908160011c92600183169283156113c5575b602085108414610bde5784875286939081156113a3575060011461135f575b5061135d925003836112c5565b565b90505f9291925260205f20905f915b81831061138757505090602061135d928201015f611350565b602091935080600191548385890101520191019091849261136e565b90506020925061135d94915060ff191682840152151560051b8201015f611350565b93607f1693611331565b6001600160a01b0390911691908215610f71575f828152600260205260409020546001600160a01b0316928290331515806114c7575b5084611494575b805f52600360205260405f2060018154019055815f52600260205260405f20816bffffffffffffffffffffffff60a01b825416179055847fddf252ad1be2c89b69c2b068fc378daa952ba7f163c4a11628f55a4df523b3ef5f80a46001600160a01b031680830361147c57505050565b6364283d7b60e01b5f5260045260245260445260645ffd5b5f82815260046020526040902080546001600160a01b0319169055845f52600360205260405f205f19815401905561140c565b9091508061150b575b156114dd5782905f611405565b82846114f557637e27328960e01b5f5260045260245ffd5b63177e802f60e01b5f523360045260245260445ffd5b50338414801561153a575b806114d057505f838152600460205260409020546001600160a01b031633146114d0565b505f84815260056020908152604080832033845290915290205460ff16611516565b5f818152600260205260409020546001600160a01b031690811561157e575090565b637e27328960e01b5f5260045260245ffd5b6006546001600160a01b031633036115a457565b63118cdaa760e01b5f523360045260245ffd5b823b6115c5575b5050505050565b604051630a85bd0160e11b81526001600160a01b03918216600482015291811660248301526044820193909352608060648201529116916020908290819061161190608483019061123b565b03815f865af15f9181611696575b5061167457503d1561166d573d611635816112fb565b9061164360405192836112c5565b81523d5f602083013e5b805190816116685782633250574960e11b5f5260045260245ffd5b602001fd5b606061164d565b6001600160e01b03191663757a42ff60e11b01610edb57505f808080806115be565b9091506020813d6020116116d3575b816116b2602093836112c5565b8101031261018957516001600160e01b03198116810361018957905f61161f565b3d91506116a5565b805f9172184f03e93ff9f4daa797ed6e38ed64bf6a1f0160401b821015611825575b806d04ee2d6d415b85acef8100000000600a92101561180a575b662386f26fc100008110156117f6575b6305f5e1008110156117e5575b6127108110156117d6575b60648110156117c8575b10156117bd575b600a60216001840193611762856112fb565b9461177060405196876112c5565b80865261177f601f19916112fb565b013660208701378401015b5f1901916f181899199a1a9b1b9c1cb0b131b232b360811b8282061a83530480156117b857600a909161178a565b505090565b600190910190611750565b606460029104930192611749565b6127106004910493019261173f565b6305f5e10060089104930192611734565b662386f26fc1000060109104930192611727565b6d04ee2d6d415b85acef810000000060209104930192611717565b506040915072184f03e93ff9f4daa797ed6e38ed64bf6a1f0160401b81046116fd565b90815115611967578151600281018091116109095760039004600281901b91906001600160fe1b0381160361090957604051917f4142434445464748494a4b4c4d4e4f505152535455565758595a616263646566601f527f6768696a6b6c6d6e6f707172737475767778797a303132333435363738392b2f603f52602083018480518101602081018051915f82525b80891061192b575060209596975090600392915251068060011461191657600214611909575b50808452830101604052565b603d905f1901535f6118fd565b50603d90815f1982015360011901535f6118fd565b939760036004910198603f8a51818160121c165183538181600c1c16516001840153818160061c165160028401531651600382015301936118d7565b90506040516119776020826112c5565b5f81529056fea26469706673582212203cd0a738917dba6546cebd6e073db1a213fb8753a06b4fb4e5bc472c0270811964736f6c634300081e0033","linkReferences":{}},"methodIdentifiers":{"MAX_SUPPLY()":"32cb6b0c","approve(address,uint256)":"095ea7b3","balanceOf(address)":"70a08231","batchMinter()":"d0d164bd","getApproved(uint256)":"081812fc","isApprovedForAll(address,address)":"e985e9c5","mint(address,uint256)":"40c10f19","name()":"06fdde03","owner()":"8da5cb5b","ownerOf(uint256)":"6352211e","renounceOwnership()":"715018a6","safeTransferFrom(address,address,uint256)":"42842e0e","safeTransferFrom(address,address,uint256,bytes)":"b88d4fde","setApprovalForAll(address,bool)":"a22cb465","setBatchMinter(address)":"b1db9044","supportsInterface(bytes4)":"01ffc9a7","symbol()":"95d89b41","tokenURI(uint256)":"c87b56dd","totalSupply()":"18160ddd","transferFrom(address,address,uint256)":"23b872dd","transferOwnership(address)":"f2fde38b"},"id":34}