{"abi":[{"type":"constructor","inputs":[{"name":"_nftContract","type":"address","internalType":"address"}],"stateMutability":"nonpayable"},{"type":"function","name":"BATCH_SIZE","inputs":[],"outputs":[{"name":"","type":"uint256","internalType":"uint256"}],"stateMutability":"view"},{"type":"function","name":"batchMint","inputs":[{"name":"to","type":"address","internalType":"address"},{"name":"amount","type":"uint256","internalType":"uint256"}],"outputs":[],"stateMutability":"nonpayable"},{"type":"function","name":"nftContract","inputs":[],"outputs":[{"name":"","type":"address","internalType":"contract MonadNFT"}],"stateMutability":"view"},{"type":"function","name":"owner","inputs":[],"outputs":[{"name":"","type":"address","internalType":"address"}],"stateMutability":"view"},{"type":"function","name":"publicMint","inputs":[],"outputs":[],"stateMutability":"nonpayable"},{"type":"function","name":"remainingSupply","inputs":[],"outputs":[{"name":"","type":"uint256","internalType":"uint256"}],"stateMutability":"view"},{"type":"event","name":"BatchMinted","inputs":[{"name":"to","type":"address","indexed":true,"internalType":"address"},{"name":"startId","type":"uint256","indexed":false,"internalType":"uint256"},{"name":"endId","type":"uint256","indexed":false,"internalType":"uint256"},{"name":"count","type":"uint256","indexed":false,"internalType":"uint256"},{"name":"timeTaken","type":"uint256","indexed":false,"internalType":"uint256"}],"anonymous":false}],"bytecode":{"object":"0x608034607c57601f61082138819003918201601f19168301916001600160401b03831184841017608057808492602094604052833981010312607c57516001600160a01b03811690819003607c575f80546001600160a01b0319908116929092179055600180549091163317905560405161078c90816100958239f35b5f80fd5b634e487b7160e01b5f52604160045260245ffdfe6080806040526004361015610012575f80fd5b5f905f3560e01c90816326092b83146105355750806343508b05146101ce57806349faa4d4146101b15780638da5cb5b14610188578063d56d229d146101615763da0239a614610060575f80fd5b3461015e578060031936011261015e578054604051630cb2dac360e21b815291906001600160a01b0316602083600481845afa92831561015357829361011e575b506020600491604051928380926318160ddd60e01b82525afa91821561011257916100db575b60206100d38385610749565b604051908152f35b90506020813d60201161010a575b816100f660209383610706565b81010312610106575160206100c7565b5f80fd5b3d91506100e9565b604051903d90823e3d90fd5b9092506020813d60201161014b575b8161013a60209383610706565b8101031261010657519160206100a1565b3d915061012d565b6040513d84823e3d90fd5b80fd5b503461015e578060031936011261015e57546040516001600160a01b039091168152602090f35b503461015e578060031936011261015e576001546040516001600160a01b039091168152602090f35b503461015e578060031936011261015e5760206040516107d08152f35b503461015e57604036600319011261015e576004356001600160a01b038116908181036103b157600154602435906001600160a01b0316330361050457801515806104f8575b156104c25783546040516318160ddd60e01b81526001600160a01b039091169290602081600481875afa80156104b75783908790610481575b610257925061073c565b604051630cb2dac360e21b815290602082600481885afa918215610476578792610442575b5011610408576020600493604051948580926318160ddd60e01b82525afa9283156103fd5785936103c9575b50600183018093116103b557845b8281106103335750506102c94242610749565b906102d4818461073c565b5f19810190811161031f57917f0204279b150a065537dee6f91b4519c3815f2f2c403508327f4f118e541e79019391608093604051938452602084015260408301526060820152a280f35b634e487b7160e01b86526011600452602486fd5b855486906001600160a01b031661034a838761073c565b90803b156103b1576040516340c10f1960e01b81526001600160a01b0386166004820152602481019290925282908290604490829084905af1801561015357610398575b50506001016102b6565b816103a291610706565b6103ad57855f61038e565b8580fd5b8280fd5b634e487b7160e01b85526011600452602485fd5b9092506020813d6020116103f5575b816103e560209383610706565b810103126101065751915f6102a8565b3d91506103d8565b6040513d87823e3d90fd5b60405162461bcd60e51b815260206004820152601260248201527145786365656473206d617820737570706c7960701b6044820152606490fd5b9091506020813d60201161046e575b8161045e60209383610706565b810103126101065751905f61027c565b3d9150610451565b6040513d89823e3d90fd5b50506020813d6020116104af575b8161049c60209383610706565b810103126101065782610257915161024d565b3d915061048f565b6040513d88823e3d90fd5b60405162461bcd60e51b815260206004820152600e60248201526d125b9d985b1a5908185b5bdd5b9d60921b6044820152606490fd5b506107d0811115610214565b60405162461bcd60e51b81526020600482015260096024820152682737ba1037bbb732b960b91b6044820152606490fd5b905034610106575f366003190112610106575f546318160ddd60e01b82526001600160a01b031690602081600481855afa90811561061d575f916106d4575b50604051630cb2dac360e21b815290602082600481865afa91821561061d575f926106a0575b501015610670576040516318160ddd60e01b815290602082600481845afa91821561061d575f9261063c575b506001820180921161062857803b15610106576040516340c10f1960e01b815233600482015260248101929092525f908290604490829084905af1801561061d5761060f575080f35b61061b91505f90610706565b005b6040513d5f823e3d90fd5b634e487b7160e01b5f52601160045260245ffd5b9091506020813d602011610668575b8161065860209383610706565b810103126101065751905f6105c6565b3d915061064b565b60405162461bcd60e51b815260206004820152600860248201526714dbdb19081bdd5d60c21b6044820152606490fd5b9091506020813d6020116106cc575b816106bc60209383610706565b810103126101065751905f61059a565b3d91506106af565b90506020813d6020116106fe575b816106ef60209383610706565b8101031261010657515f610574565b3d91506106e2565b90601f8019910116810190811067ffffffffffffffff82111761072857604052565b634e487b7160e01b5f52604160045260245ffd5b9190820180921161062857565b919082039182116106285756fea2646970667358221220324967e70471168fb12be0f60e6280544234609258cf058bb7d55d4fd173eee364736f6c634300081e0033","linkReferences":{}},"methodIdentifiers":{"BATCH_SIZE()":"49faa4d4","batchMint(address,uint256)":"43508b05","nftContract()":"d56d229d","owner()":"8da5cb5b","publicMint()":"26092b83","remainingSupply()":"da0239a6"},"id":33}