{
    "abi": [
        {
            "type": "constructor",
            "inputs": [],
            "stateMutability": "nonpayable"
        },
        {
            "type": "receive",
            "stateMutability": "payable"
        },
        {
            "type": "function",
            "name": "DISPUTE_WINDOW",
            "inputs": [],
            "outputs": [
                {
                    "name": "",
                    "type": "uint256",
                    "internalType": "uint256"
                }
            ],
            "stateMutability": "view"
        },
        {
            "type": "function",
            "name": "MAX_OTP_ATTEMPTS",
            "inputs": [],
            "outputs": [
                {
                    "name": "",
                    "type": "uint8",
                    "internalType": "uint8"
                }
            ],
            "stateMutability": "view"
        },
        {
            "type": "function",
            "name": "REFUND_TIMEOUT",
            "inputs": [],
            "outputs": [
                {
                    "name": "",
                    "type": "uint256",
                    "internalType": "uint256"
                }
            ],
            "stateMutability": "view"
        },
        {
            "type": "function",
            "name": "claimRefund",
            "inputs": [
                {
                    "name": "orderId",
                    "type": "uint256",
                    "internalType": "uint256"
                }
            ],
            "outputs": [],
            "stateMutability": "nonpayable"
        },
        {
            "type": "function",
            "name": "confirmDelivery",
            "inputs": [
                {
                    "name": "orderId",
                    "type": "uint256",
                    "internalType": "uint256"
                },
                {
                    "name": "otp",
                    "type": "string",
                    "internalType": "string"
                }
            ],
            "outputs": [],
            "stateMutability": "nonpayable"
        },
        {
            "type": "function",
            "name": "createOrder",
            "inputs": [
                {
                    "name": "seller",
                    "type": "address",
                    "internalType": "address payable"
                },
                {
                    "name": "zone",
                    "type": "bytes32",
                    "internalType": "bytes32"
                }
            ],
            "outputs": [
                {
                    "name": "orderId",
                    "type": "uint256",
                    "internalType": "uint256"
                }
            ],
            "stateMutability": "payable"
        },
        {
            "type": "function",
            "name": "disputeOrder",
            "inputs": [
                {
                    "name": "orderId",
                    "type": "uint256",
                    "internalType": "uint256"
                }
            ],
            "outputs": [],
            "stateMutability": "nonpayable"
        },
        {
            "type": "function",
            "name": "disputeTimeLeft",
            "inputs": [
                {
                    "name": "orderId",
                    "type": "uint256",
                    "internalType": "uint256"
                }
            ],
            "outputs": [
                {
                    "name": "",
                    "type": "uint256",
                    "internalType": "uint256"
                }
            ],
            "stateMutability": "view"
        },
        {
            "type": "function",
            "name": "getOrder",
            "inputs": [
                {
                    "name": "orderId",
                    "type": "uint256",
                    "internalType": "uint256"
                }
            ],
            "outputs": [
                {
                    "name": "",
                    "type": "tuple",
                    "internalType": "struct EscrowCore.Order",
                    "components": [
                        {
                            "name": "buyer",
                            "type": "address",
                            "internalType": "address payable"
                        },
                        {
                            "name": "seller",
                            "type": "address",
                            "internalType": "address payable"
                        },
                        {
                            "name": "usdPrice",
                            "type": "uint256",
                            "internalType": "uint256"
                        },
                        {
                            "name": "monadAmount",
                            "type": "uint256",
                            "internalType": "uint256"
                        },
                        {
                            "name": "zone",
                            "type": "bytes32",
                            "internalType": "bytes32"
                        },
                        {
                            "name": "otpHash",
                            "type": "bytes32",
                            "internalType": "bytes32"
                        },
                        {
                            "name": "status",
                            "type": "uint8",
                            "internalType": "enum EscrowCore.Status"
                        },
                        {
                            "name": "createdAt",
                            "type": "uint256",
                            "internalType": "uint256"
                        },
                        {
                            "name": "deliveredAt",
                            "type": "uint256",
                            "internalType": "uint256"
                        },
                        {
                            "name": "confirmedAt",
                            "type": "uint256",
                            "internalType": "uint256"
                        }
                    ]
                }
            ],
            "stateMutability": "view"
        },
        {
            "type": "function",
            "name": "getPrice",
            "inputs": [
                {
                    "name": "seller",
                    "type": "address",
                    "internalType": "address"
                },
                {
                    "name": "zone",
                    "type": "bytes32",
                    "internalType": "bytes32"
                }
            ],
            "outputs": [
                {
                    "name": "usdCents",
                    "type": "uint256",
                    "internalType": "uint256"
                }
            ],
            "stateMutability": "view"
        },
        {
            "type": "function",
            "name": "getStatus",
            "inputs": [
                {
                    "name": "orderId",
                    "type": "uint256",
                    "internalType": "uint256"
                }
            ],
            "outputs": [
                {
                    "name": "",
                    "type": "uint8",
                    "internalType": "enum EscrowCore.Status"
                }
            ],
            "stateMutability": "view"
        },
        {
            "type": "function",
            "name": "isSellerReady",
            "inputs": [
                {
                    "name": "seller",
                    "type": "address",
                    "internalType": "address"
                },
                {
                    "name": "zone",
                    "type": "bytes32",
                    "internalType": "bytes32"
                }
            ],
            "outputs": [
                {
                    "name": "",
                    "type": "bool",
                    "internalType": "bool"
                }
            ],
            "stateMutability": "view"
        },
        {
            "type": "function",
            "name": "markDelivered",
            "inputs": [
                {
                    "name": "orderId",
                    "type": "uint256",
                    "internalType": "uint256"
                },
                {
                    "name": "otpHash",
                    "type": "bytes32",
                    "internalType": "bytes32"
                }
            ],
            "outputs": [],
            "stateMutability": "nonpayable"
        },
        {
            "type": "function",
            "name": "orderCount",
            "inputs": [],
            "outputs": [
                {
                    "name": "",
                    "type": "uint256",
                    "internalType": "uint256"
                }
            ],
            "stateMutability": "view"
        },
        {
            "type": "function",
            "name": "orders",
            "inputs": [
                {
                    "name": "",
                    "type": "uint256",
                    "internalType": "uint256"
                }
            ],
            "outputs": [
                {
                    "name": "buyer",
                    "type": "address",
                    "internalType": "address payable"
                },
                {
                    "name": "seller",
                    "type": "address",
                    "internalType": "address payable"
                },
                {
                    "name": "usdPrice",
                    "type": "uint256",
                    "internalType": "uint256"
                },
                {
                    "name": "monadAmount",
                    "type": "uint256",
                    "internalType": "uint256"
                },
                {
                    "name": "zone",
                    "type": "bytes32",
                    "internalType": "bytes32"
                },
                {
                    "name": "otpHash",
                    "type": "bytes32",
                    "internalType": "bytes32"
                },
                {
                    "name": "status",
                    "type": "uint8",
                    "internalType": "enum EscrowCore.Status"
                },
                {
                    "name": "createdAt",
                    "type": "uint256",
                    "internalType": "uint256"
                },
                {
                    "name": "deliveredAt",
                    "type": "uint256",
                    "internalType": "uint256"
                },
                {
                    "name": "confirmedAt",
                    "type": "uint256",
                    "internalType": "uint256"
                }
            ],
            "stateMutability": "view"
        },
        {
            "type": "function",
            "name": "otpAttempts",
            "inputs": [
                {
                    "name": "",
                    "type": "uint256",
                    "internalType": "uint256"
                }
            ],
            "outputs": [
                {
                    "name": "",
                    "type": "uint8",
                    "internalType": "uint8"
                }
            ],
            "stateMutability": "view"
        },
        {
            "type": "function",
            "name": "owner",
            "inputs": [],
            "outputs": [
                {
                    "name": "",
                    "type": "address",
                    "internalType": "address"
                }
            ],
            "stateMutability": "view"
        },
        {
            "type": "function",
            "name": "releaseFunds",
            "inputs": [
                {
                    "name": "orderId",
                    "type": "uint256",
                    "internalType": "uint256"
                }
            ],
            "outputs": [],
            "stateMutability": "nonpayable"
        },
        {
            "type": "function",
            "name": "removePrice",
            "inputs": [
                {
                    "name": "zone",
                    "type": "bytes32",
                    "internalType": "bytes32"
                }
            ],
            "outputs": [],
            "stateMutability": "nonpayable"
        },
        {
            "type": "function",
            "name": "renounceOwnership",
            "inputs": [],
            "outputs": [],
            "stateMutability": "nonpayable"
        },
        {
            "type": "function",
            "name": "resolveDispute",
            "inputs": [
                {
                    "name": "orderId",
                    "type": "uint256",
                    "internalType": "uint256"
                },
                {
                    "name": "refundBuyer",
                    "type": "bool",
                    "internalType": "bool"
                }
            ],
            "outputs": [],
            "stateMutability": "nonpayable"
        },
        {
            "type": "function",
            "name": "sellerAvailable",
            "inputs": [
                {
                    "name": "",
                    "type": "address",
                    "internalType": "address"
                }
            ],
            "outputs": [
                {
                    "name": "",
                    "type": "bool",
                    "internalType": "bool"
                }
            ],
            "stateMutability": "view"
        },
        {
            "type": "function",
            "name": "sellerPrices",
            "inputs": [
                {
                    "name": "",
                    "type": "address",
                    "internalType": "address"
                },
                {
                    "name": "",
                    "type": "bytes32",
                    "internalType": "bytes32"
                }
            ],
            "outputs": [
                {
                    "name": "",
                    "type": "uint256",
                    "internalType": "uint256"
                }
            ],
            "stateMutability": "view"
        },
        {
            "type": "function",
            "name": "setAvailability",
            "inputs": [
                {
                    "name": "available",
                    "type": "bool",
                    "internalType": "bool"
                }
            ],
            "outputs": [],
            "stateMutability": "nonpayable"
        },
        {
            "type": "function",
            "name": "setPrice",
            "inputs": [
                {
                    "name": "zone",
                    "type": "bytes32",
                    "internalType": "bytes32"
                },
                {
                    "name": "usdCents",
                    "type": "uint256",
                    "internalType": "uint256"
                }
            ],
            "outputs": [],
            "stateMutability": "nonpayable"
        },
        {
            "type": "function",
            "name": "transferOwnership",
            "inputs": [
                {
                    "name": "newOwner",
                    "type": "address",
                    "internalType": "address"
                }
            ],
            "outputs": [],
            "stateMutability": "nonpayable"
        },
        {
            "type": "event",
            "name": "AvailabilityChanged",
            "inputs": [
                {
                    "name": "seller",
                    "type": "address",
                    "indexed": true,
                    "internalType": "address"
                },
                {
                    "name": "available",
                    "type": "bool",
                    "indexed": false,
                    "internalType": "bool"
                }
            ],
            "anonymous": false
        },
        {
            "type": "event",
            "name": "DisputeResolved",
            "inputs": [
                {
                    "name": "orderId",
                    "type": "uint256",
                    "indexed": true,
                    "internalType": "uint256"
                },
                {
                    "name": "recipient",
                    "type": "address",
                    "indexed": false,
                    "internalType": "address"
                },
                {
                    "name": "monadAmount",
                    "type": "uint256",
                    "indexed": false,
                    "internalType": "uint256"
                }
            ],
            "anonymous": false
        },
        {
            "type": "event",
            "name": "OTPFailed",
            "inputs": [
                {
                    "name": "orderId",
                    "type": "uint256",
                    "indexed": true,
                    "internalType": "uint256"
                },
                {
                    "name": "attemptNumber",
                    "type": "uint8",
                    "indexed": false,
                    "internalType": "uint8"
                },
                {
                    "name": "attemptsLeft",
                    "type": "uint8",
                    "indexed": false,
                    "internalType": "uint8"
                }
            ],
            "anonymous": false
        },
        {
            "type": "event",
            "name": "OrderCompleted",
            "inputs": [
                {
                    "name": "orderId",
                    "type": "uint256",
                    "indexed": true,
                    "internalType": "uint256"
                },
                {
                    "name": "confirmedAt",
                    "type": "uint256",
                    "indexed": false,
                    "internalType": "uint256"
                }
            ],
            "anonymous": false
        },
        {
            "type": "event",
            "name": "OrderCreated",
            "inputs": [
                {
                    "name": "orderId",
                    "type": "uint256",
                    "indexed": true,
                    "internalType": "uint256"
                },
                {
                    "name": "buyer",
                    "type": "address",
                    "indexed": true,
                    "internalType": "address"
                },
                {
                    "name": "seller",
                    "type": "address",
                    "indexed": true,
                    "internalType": "address"
                },
                {
                    "name": "zone",
                    "type": "bytes32",
                    "indexed": false,
                    "internalType": "bytes32"
                },
                {
                    "name": "usdPrice",
                    "type": "uint256",
                    "indexed": false,
                    "internalType": "uint256"
                },
                {
                    "name": "monadAmount",
                    "type": "uint256",
                    "indexed": false,
                    "internalType": "uint256"
                }
            ],
            "anonymous": false
        },
        {
            "type": "event",
            "name": "OrderDelivered",
            "inputs": [
                {
                    "name": "orderId",
                    "type": "uint256",
                    "indexed": true,
                    "internalType": "uint256"
                },
                {
                    "name": "otpHash",
                    "type": "bytes32",
                    "indexed": false,
                    "internalType": "bytes32"
                }
            ],
            "anonymous": false
        },
        {
            "type": "event",
            "name": "OrderDisputed",
            "inputs": [
                {
                    "name": "orderId",
                    "type": "uint256",
                    "indexed": true,
                    "internalType": "uint256"
                }
            ],
            "anonymous": false
        },
        {
            "type": "event",
            "name": "OrderRefunded",
            "inputs": [
                {
                    "name": "orderId",
                    "type": "uint256",
                    "indexed": true,
                    "internalType": "uint256"
                }
            ],
            "anonymous": false
        },
        {
            "type": "event",
            "name": "OrderReleased",
            "inputs": [
                {
                    "name": "orderId",
                    "type": "uint256",
                    "indexed": true,
                    "internalType": "uint256"
                },
                {
                    "name": "monadAmount",
                    "type": "uint256",
                    "indexed": false,
                    "internalType": "uint256"
                }
            ],
            "anonymous": false
        },
        {
            "type": "event",
            "name": "OwnershipTransferred",
            "inputs": [
                {
                    "name": "previousOwner",
                    "type": "address",
                    "indexed": true,
                    "internalType": "address"
                },
                {
                    "name": "newOwner",
                    "type": "address",
                    "indexed": true,
                    "internalType": "address"
                }
            ],
            "anonymous": false
        },
        {
            "type": "event",
            "name": "PriceRemoved",
            "inputs": [
                {
                    "name": "seller",
                    "type": "address",
                    "indexed": true,
                    "internalType": "address"
                },
                {
                    "name": "zone",
                    "type": "bytes32",
                    "indexed": false,
                    "internalType": "bytes32"
                }
            ],
            "anonymous": false
        },
        {
            "type": "event",
            "name": "PriceSet",
            "inputs": [
                {
                    "name": "seller",
                    "type": "address",
                    "indexed": true,
                    "internalType": "address"
                },
                {
                    "name": "zone",
                    "type": "bytes32",
                    "indexed": false,
                    "internalType": "bytes32"
                },
                {
                    "name": "usdCents",
                    "type": "uint256",
                    "indexed": false,
                    "internalType": "uint256"
                }
            ],
            "anonymous": false
        },
        {
            "type": "error",
            "name": "EscrowCore__DisputeWindowClosed",
            "inputs": []
        },
        {
            "type": "error",
            "name": "EscrowCore__DisputeWindowOpen",
            "inputs": []
        },
        {
            "type": "error",
            "name": "EscrowCore__InvalidOTP",
            "inputs": []
        },
        {
            "type": "error",
            "name": "EscrowCore__InvalidOTPHash",
            "inputs": []
        },
        {
            "type": "error",
            "name": "EscrowCore__InvalidZone",
            "inputs": []
        },
        {
            "type": "error",
            "name": "EscrowCore__MaxAttemptsReached",
            "inputs": []
        },
        {
            "type": "error",
            "name": "EscrowCore__NotBuyer",
            "inputs": []
        },
        {
            "type": "error",
            "name": "EscrowCore__NotSeller",
            "inputs": []
        },
        {
            "type": "error",
            "name": "EscrowCore__SelfTrade",
            "inputs": []
        },
        {
            "type": "error",
            "name": "EscrowCore__SellerUnavailable",
            "inputs": []
        },
        {
            "type": "error",
            "name": "EscrowCore__TimeoutNotReached",
            "inputs": []
        },
        {
            "type": "error",
            "name": "EscrowCore__TransferFailed",
            "inputs": []
        },
        {
            "type": "error",
            "name": "EscrowCore__WrongStatus",
            "inputs": [
                {
                    "name": "expected",
                    "type": "uint8",
                    "internalType": "enum EscrowCore.Status"
                },
                {
                    "name": "actual",
                    "type": "uint8",
                    "internalType": "enum EscrowCore.Status"
                }
            ]
        },
        {
            "type": "error",
            "name": "EscrowCore__ZeroAddress",
            "inputs": []
        },
        {
            "type": "error",
            "name": "EscrowCore__ZeroPayment",
            "inputs": []
        },
        {
            "type": "error",
            "name": "EscrowCore__ZeroPriceCents",
            "inputs": []
        },
        {
            "type": "error",
            "name": "EscrowCore__ZoneNotFound",
            "inputs": []
        },
        {
            "type": "error",
            "name": "OwnableInvalidOwner",
            "inputs": [
                {
                    "name": "owner",
                    "type": "address",
                    "internalType": "address"
                }
            ]
        },
        {
            "type": "error",
            "name": "OwnableUnauthorizedAccount",
            "inputs": [
                {
                    "name": "account",
                    "type": "address",
                    "internalType": "address"
                }
            ]
        },
        {
            "type": "error",
            "name": "ReentrancyGuardReentrantCall",
            "inputs": []
        }
    ],
    "bytecode": {
        "object": "0x6080806040523460955733156082575f8054336001600160a01b0319821681178355916001600160a01b03909116907f8be0079c531659141344cd1fd0a4f28419497f9722a3daafe3b4186f6b6457e09080a360017f9b779b17422d0df92223018b32b4d1fa46e071723d6817e2486d003becc55f00556112cc908161009a8239f35b631e4fbdf760e01b5f525f60045260245ffd5b5f80fdfe6080806040526004361015610053575b50361561001a575f80fd5b60405162461bcd60e51b8152602060048201526011602482015270557365206372656174654f72646572282960781b6044820152606490fd5b5f3560e01c90816310d8d74d1461106c575080632453ffa81461104f5780632672bea114610fe857806326a1837514610f8357806334b25ee214610e5a5780633b6cd91614610e345780634d471e8514610c285780634d68282f14610b3b5780635b22e35514610afe5780635b7baf64146109ed5780635c622a0e146109b657806370f0fff1146108cd578063715018a6146108765780637d57900a146108595780637f2d6475146107ea5780638da5cb5b146107c35780639eb4dcf3146107a8578063a09970b2146106d3578063a1aaf6c7146103c5578063a85c38ef1461062a578063b211838814610409578063cd3b4957146103c5578063d09ef2411461024f578063f2fde38b146101ca578063f585dc57146101ae5763fdbb9b111461017d575f61000f565b346101aa5760203660031901126101aa576004355f526005602052602060ff60405f205416604051908152f35b5f80fd5b346101aa575f3660031901126101aa576020604051611c208152f35b346101aa5760203660031901126101aa576101e36110e5565b6101eb611250565b6001600160a01b0316801561023c575f80546001600160a01b03198116831782556001600160a01b0316907f8be0079c531659141344cd1fd0a4f28419497f9722a3daafe3b4186f6b6457e09080a3005b631e4fbdf760e01b5f525f60045260245ffd5b346101aa5760203660031901126101aa575f6101206040516102708161112e565b8281528260208201528260408201528260608201528260808201528260a08201528260c08201528260e08201528261010082015201526004355f52600260205260405f206040516102c08161112e565b81546001600160a01b03908116825260018301541660208201908152600283015460408301908152600384015460608401908152600485015460808501908152600586015460a086019081526006808801549397949360ff169260c0880192918410156103b1576101409861039b94845260078701549560e08a0196875260096008890154986101008c01998a520154986101208b01998a526040519a60018060a01b039051168b5260018060a01b0390511660208b01525160408a01525160608901525160808801525160a08701525160c0860190611109565b5160e08401525161010083015251610120820152f35b634e487b7160e01b5f52602160045260245ffd5b346101aa5760403660031901126101aa576001600160a01b036103e66110e5565b165f52600360205260405f206024355f52602052602060405f2054604051908152f35b346101aa5760403660031901126101aa5760043560243567ffffffffffffffff81116101aa57366023820112156101aa5780600401359067ffffffffffffffff82116101aa5736602483830101116101aa57610463611218565b5f838152600260205260409020546001600160a01b0316330361061b57825f52600260205260ff600660405f2001541660068110156103b157600181036105fe5750825f526005602052600460ff60405f20541610156105ef57825f52600260205260405f2091835f52600560205260405f20805460ff811660ff81146105db57600160ff9101169060ff191617905561051d602060405183819460248484019701873781015f838201520301601f19810183528261115f565b51902060058201540361057c5760068101600260ff198254161790556009429101557f8018cc3f9db78a02ed6d3210f982aa968ce2a26acb738b0917febbcdd47b350c6020604051428152a260015f5160206112775f395f51905f5255005b50805f52600560205260ff60405f2054168060040360ff81116105db577f7924fe6b4543dc14dbef31d130c488b77e8a45f9831232b2971bbf3c1cd34dbd9160ff6040928351928352166020820152a263044c748760e41b5f5260045ffd5b634e487b7160e01b5f52601160045260245ffd5b63ebbd2a4760e01b5f5260045ffd5b6313b7415960e31b5f526001600452610616906110fb565b60445ffd5b6337fe465960e11b5f5260045ffd5b346101aa5760203660031901126101aa576004355f52600260205261014060405f2060018060a01b038154169060018060a01b036001820154169060028101546106c06003830154600484015460058501549060ff6006870154169260078701549560096008890154980154986040519a8b5260208b015260408a01526060890152608088015260a087015260c0860190611109565b60e0840152610100830152610120820152f35b346101aa5760203660031901126101aa576004355f818152600260205260409020546001600160a01b0316330361061b57805f52600260205260ff600660405f2001541660068110156103b157600281036107905750805f52600260205260405f206009810154611c2081018091116105db5742101561078157600601805460ff191660051790557fcc71d13ec179647ba6991025098e2d3f0dc223962c4052028bfb067e394e22b05f80a2005b630274334360e21b5f5260045ffd5b6313b7415960e31b5f526002600452610616906110fb565b346101aa575f3660031901126101aa57602060405160048152f35b346101aa575f3660031901126101aa575f546040516001600160a01b039091168152602090f35b346101aa5760203660031901126101aa57600435801561084a57335f52600360205260405f20815f526020525f60408120556040519081527fc6de8249ca252df4b71cc03faf067e867f25de0244ae49bc641097cabd9cdc8e60203392a2005b633c8b36e360e11b5f5260045ffd5b346101aa575f3660031901126101aa57602060405162093a808152f35b346101aa575f3660031901126101aa5761088e611250565b5f80546001600160a01b0319811682556001600160a01b03167f8be0079c531659141344cd1fd0a4f28419497f9722a3daafe3b4186f6b6457e08280a3005b346101aa5760403660031901126101aa576004355f81815260026020526040902060010154602435906001600160a01b031633036109a757815f52600260205260ff600660405f2001541660068110156103b1578061098f575080156109805760207fbbd51761021d0f19f00343ed888f1fea9d7a567a3506b3b20526a49d06fe27e491835f526002825260405f2081600582015560068101600160ff19825416179055600842910155604051908152a2005b63170011e960e21b5f5260045ffd5b6313b7415960e31b5f908152600452610616906110fb565b630372a24360e31b5f5260045ffd5b346101aa5760203660031901126101aa576004355f526002602052602060ff600660405f200154166109eb6040518092611109565bf35b346101aa5760203660031901126101aa57600435610a09611218565b5f818152600260205260409020546001600160a01b0316330361061b57805f52600260205260ff600660405f2001541660068110156103b1578061098f5750805f52600260205260405f20600781015462093a8081018091116105db574210610aef5760068101805460ff191660041790556003810180545f91829055915490918291829182916001600160a01b03165af1610aa3611181565b5015610ae0577f303a31648d19f17852cf82657162c4bdd4a06ab3f36f1e7ae1118f4ca6473e115f80a260015f5160206112775f395f51905f5255005b63f36585b760e01b5f5260045ffd5b63e27c23d760e01b5f5260045ffd5b346101aa5760203660031901126101aa576001600160a01b03610b1f6110e5565b165f526004602052602060ff60405f2054166040519015158152f35b346101aa5760203660031901126101aa57600435610b57611218565b805f52600260205260ff600660405f2001541660068110156103b157600281036107905750805f52600260205260405f206009810154611c2081018091116105db574210610c19575f808080846006829601600360ff1982541617905560038101908154968792556001808060a01b03910154165af1610bd5611181565b5015610ae05760207faf19a54192726ad3309ad6dcd248c3d939577fd6c77f6fa23bbfdb579fa74fae91604051908152a260015f5160206112775f395f51905f5255005b63058c9f1f60e21b5f5260045ffd5b60403660031901126101aa576004356001600160a01b038116908190036101aa576024353415610e25578115610e1657338214610e0757801561084a57815f52600460205260ff60405f20541615610df857815f52600360205260405f20815f5260205260405f2054918215610de9576001545f1981146105db57600101918260015560405193610cb88561112e565b33855260208501948386526040810182815260608201963488526080830185815260a084015f815260c08501915f835260e086019a428c526101008701955f87526101208801955f87528c5f52600260205260405f209860018060a01b039060018060a01b03905116166bffffffffffffffffffffffff60a01b8a541617895560018060a01b03905116600189019060018060a01b03166bffffffffffffffffffffffff60a01b825416179055516002880155516003870155516004860155516005850155519160068310156103b157602098610d9a60099460068701611116565b5160078501555160088401555191015560405191825284820152346040820152827f2e829be6f9f5b199ef9e3a9298724c0b99796dadb8fecf4ea362c29d7b53aaf060603393a4604051908152f35b631e4f9b5f60e11b5f5260045ffd5b633107d82d60e21b5f5260045ffd5b635a43785360e01b5f5260045ffd5b630344830f60e51b5f5260045ffd5b630cf9abc560e31b5f5260045ffd5b346101aa5760203660031901126101aa576020610e526004356111c0565b604051908152f35b346101aa5760403660031901126101aa5760043560243580151581036101aa57610e82611218565b610e8a611250565b815f52600260205260ff600660405f2001541660068110156103b15760058103610f6b5750815f52600260205260405f20815f14610f6157610ed160045b60068301611116565b60038101915f835493555f14610f4f57546001600160a01b03165b6001600160a01b0316905f80808084865af1610f06611181565b5015610ae0577fdf0baf5489595ea17a097d16827d60793e2f57f3b85a982e5d7e02838b841ee69160409182519182526020820152a260015f5160206112775f395f51905f5255005b600101546001600160a01b0316610eec565b610ed16003610ec8565b6313b7415960e31b5f526005600452610616906110fb565b346101aa5760203660031901126101aa576004358015158091036101aa57335f52600460205260405f2060ff1981541660ff83161790556040519081527f562959e54bc5720974a51bcecdf4febbbc2b5a263655bed9db94b39ed95d8e9160203392a2005b346101aa5760403660031901126101aa576001600160a01b036110096110e5565b16805f52600460205260ff60405f2054168061102d575b6020906040519015158152f35b505f52600360205260405f206024355f52602052602060405f20541515611020565b346101aa575f3660031901126101aa576020600154604051908152f35b346101aa5760403660031901126101aa57602435600435801561084a5781156110d657335f52600360205260405f20815f526020528160405f2055825260208201527f96b6fa4a747eac5c56c4e21b8b48beafa4e1d36787a5750caa5a5c095bf3eed660403392a2005b633317292d60e01b5f5260045ffd5b600435906001600160a01b03821682036101aa57565b60068110156103b157602452565b9060068210156103b15752565b9060068110156103b15760ff80198354169116179055565b610140810190811067ffffffffffffffff82111761114b57604052565b634e487b7160e01b5f52604160045260245ffd5b90601f8019910116810190811067ffffffffffffffff82111761114b57604052565b3d156111bb573d9067ffffffffffffffff821161114b57604051916111b0601f8201601f19166020018461115f565b82523d5f602084013e565b606090565b5f52600260205260405f2060ff60068201541660068110156103b1576002036112135760090154611c208101908181116105db578142101561120d57429003611c20019081116105db5790565b50505f90565b505f90565b60025f5160206112775f395f51905f5254146112415760025f5160206112775f395f51905f5255565b633ee5aeb560e01b5f5260045ffd5b5f546001600160a01b0316330361126357565b63118cdaa760e01b5f523360045260245ffdfe9b779b17422d0df92223018b32b4d1fa46e071723d6817e2486d003becc55f00a2646970667358221220b079bdf51b3e4d5498ebc86263d6db926acaf10c810055fc1ef72b8576a21aa964736f6c634300081e0033",
        "linkReferences": {}
    },
    "methodIdentifiers": {
        "DISPUTE_WINDOW()": "f585dc57",
        "MAX_OTP_ATTEMPTS()": "9eb4dcf3",
        "REFUND_TIMEOUT()": "7d57900a",
        "claimRefund(uint256)": "5b7baf64",
        "confirmDelivery(uint256,string)": "b2118388",
        "createOrder(address,bytes32)": "4d471e85",
        "disputeOrder(uint256)": "a09970b2",
        "disputeTimeLeft(uint256)": "3b6cd916",
        "getOrder(uint256)": "d09ef241",
        "getPrice(address,bytes32)": "a1aaf6c7",
        "getStatus(uint256)": "5c622a0e",
        "isSellerReady(address,bytes32)": "2672bea1",
        "markDelivered(uint256,bytes32)": "70f0fff1",
        "orderCount()": "2453ffa8",
        "orders(uint256)": "a85c38ef",
        "otpAttempts(uint256)": "fdbb9b11",
        "owner()": "8da5cb5b",
        "releaseFunds(uint256)": "4d68282f",
        "removePrice(bytes32)": "7f2d6475",
        "renounceOwnership()": "715018a6",
        "resolveDispute(uint256,bool)": "34b25ee2",
        "sellerAvailable(address)": "5b22e355",
        "sellerPrices(address,bytes32)": "cd3b4957",
        "setAvailability(bool)": "26a18375",
        "setPrice(bytes32,uint256)": "10d8d74d",
        "transferOwnership(address)": "f2fde38b"
    },
    "id": 4
}